:020000040800F2
:1000000000180020CD0E0008B1040008B304000859
:10001000B7040008BB040008BF040008000000008B
:10002000000000000000000000000000C304000801
:10003000C5040008000000005B5100087D0C0008AA
:10004000E70E0008E70E0008E70E0008E70E0008BC
:10005000E70E0008E70E0008E70E0008E70E0008AC
:10006000E70E0008E70E0008E70E0008E70E00089C
:10007000E70E0008E70E0008E70E0008E70E00088C
:10008000E70E0008E70E0008E70E0008E70E00087C
:10009000E70E0008E70E0008E70E0008E70E00086C
:1000A000E70E00083F0C0008E70E0008E70E000806
:1000B000E70E0008E70E0008E70E0008E70E00084C
:1000C000E70E0008E70E0008E70E0008E70E00083C
:1000D000E70E0008390E0008050A0008E70E0008C0
:1000E000E70E0008E70E0008E70E0008E70E00081C
:1000F000E70E0008E70E0008E70E0008E70E00080C
:10010000E70E0008E70E0008E70E0008E70E0008FB
:10011000E70E0008E70E0008E70E0008E70E0008EB
:10012000E70E0008E70E0008E70E0008E70E0008DB
:1001300000F002F800F03FF80AA090E8000C8244BA
:100140008344AAF10107DA4501D100F034F8AFF297
:10015000090EBAE80F0013F0010F18BFFB1A43F0A5
:100160000103184784530000A4530000103A24BF31
:1001700078C878C1FAD8520724BF30C830C144BF0C
:1001800004680C607047000000230024002500264E
:10019000103A28BF78C1FBD8520728BF30C148BFEA
:1001A0000B607047732905F0BD80002070471FB5B4
:1001B0001FBD10B510BD05F0E7F81146FFF7F7FFBA
:1001C00000F0BDF805F005F903B4FFF7F2FF03BC3A
:1001D00000F0D4FD6CA004F0F5FF0EE000206F49A4
:1001E00008604FF47A7000F09AFD01206C49C1F864
:1001F00080014FF47A7000F092FDEFE769A004F0FF
:10020000E1FF03E04FF47A7000F089FDFAE708B5EA
:1002100069A004F0D7FF22E06BA004F0D3FF6A4688
:1002200000216C48006803F058FC0446294620462B
:1002300000F058FB18B90020674908800FE02146FC
:1002400066A004F0BFFF29466A48006803F000FD7D
:1002500069A004F0B7FF00205F49088000BFDBE71A
:1002600008B50025002667A004F0ACFF2AE06AA0CC
:1002700004F0A8FF6A4600215E48006803F02DFCE8
:1002800004466CA004F09EFF002504F03FFF0546E5
:10029000207800F0C0FA284604F03CFF20780428BB
:1002A00001D100260EE06AA004F08CFF6A4600210E
:1002B0006C48006804F0EDF86BA004F083FF701C3C
:1002C00086B200BFD3E770B50446002500BF00200A
:1002D00004F059F863490860002003F078FB3D49B9
:1002E0000860002003F073FB4249086004F00EFF31
:1002F00005460A23604A0021AFF29B0004F08EFA03
:100300000C235E4A0021AFF2F90004F087FA0B23B8
:100310005B4A0021AFF21B1004F080FA1323594A04
:100320000021AFF24F1004F079FA142004F0F6FC2B
:1003300055A004F047FF284604F0ECFE70BD10B550
:1003400000F0A4FC00F014FD00F0D1FB4FF41650B7
:1003500000F023FD642000F0E2FC00F0E6F900F07C
:100360004BFB642000F0DBFC4CA004F02BFF02F000
:10037000F6FB14234D4A0021AFF2B50004F04EFA0B
:1003800002F012FD002010BD6C6564305F74617373
:100390006B20696E746F2E0D0A000000808121426F
:1003A0000080214254726F75626C654465616C20F7
:1003B000696E746F2E0D0A00424C454374726C20B6
:1003C000696E746F2E0D0A006D736720696E746F0D
:1003D0002E0D0A0004000020200000207468652013
:1003E000726576656976652069732025732E0D0A1E
:1003F00000000000080000206D7367206F75742EE8
:100400000D0A000077616C6B5F7461736B20696E1D
:10041000746F2E0D0A00000077616C6B5F77616965
:10042000745F626C655F6D736720696E746F2E0D0B
:100430000A00000077616C6B5F776169745F626CC2
:10044000655F6D7367206F75742E0D0A00000000E4
:1004500077616C6B5F73656D20696E746F2E0D0A2A
:10046000000000000000002077616C6B5F73656D19
:10047000206F75742E0D0A0088020020880300206A
:10048000880400208805002073746172745F7461B1
:10049000736B20696E746F0D0A0000004D61696E08
:1004A00020696E746F2E0D0A000000008801002084
:1004B000704700BFFEE700BFFEE700BFFEE700BFDA
:1004C000FEE77047704700000CB5002001900090D7
:1004D0006C48006840F480306A49086000BF694891
:1004E000006800F4003000900198401C01900098D2
:1004F00018B90198B0F5A06FF1D16248006800F416
:10050000003010B10120009001E000200090009820
:10051000012843D15C48006840F010005A49086047
:100520000846006820F0030008600846006840F0B4
:1005300002000860534840685249486008464068D5
:1005400048600846406840F480604860084640685B
:1005500020F47C1048600846406840F4E810486089
:100560000846006840F08070086000BF4548006899
:1005700000F000700028F9D04248406820F00300E5
:10058000404948600846406840F00200486000BFAB
:100590003C48406800F00C000828F9D10CBD10B5AB
:1005A000FFF792FF10BD10B53648006840F001001B
:1005B0003449086008464068344908403149486079
:1005C00008460068324908402E490860084600681D
:1005D00020F4802008600846406820F4FE0048604F
:1005E0004FF41F008860FFF7DAFF4FF000602949E1
:1005F000086010BD10B5002100200022214B5B686F
:1006000003F00C0121B1042906D0082928D107E004
:10061000214B224C236027E01F4B204C236023E01A
:10062000184B5B6803F47010164B5B6803F4803260
:10063000022303EB904022B9194B4343174C23602C
:100640000DE0104B5B6803F4003323B1144B4343BC
:10065000124C236003E0104B4343104C236003E033
:100660000D4B0E4C236000BF00BF064B5B68C3F30D
:1006700003130C4CE15C094B1B68CB40074C236017
:1006800010BD000000100240002002400000FFF8F2
:10069000FFFFF6FE08ED00E000127A000C000020DB
:1006A00000093D001000002008B50121082000F0DD
:1006B00049FF04208DF803000820ADF800006946CA
:1006C000624800F083FC08BD08B50121082000F055
:1006D00039FF04208DF803000220ADF800006946C0
:1006E0005A4800F073FC08BD08B50121082000F04D
:1006F00029FF10208DF8030001208DF8020005204D
:10070000ADF800006946514800F060FC00205049F7
:1007100008605049C1F8800108BD10B5FFF7E4FF3B
:10072000FFF7D2FFFFF7C0FF10BD10B540F23F61E9
:1007300040F2833000F00FFAFFF7EFFF10BD10B565
:1007400000F071FAFFF7D0FF10BD08B501210820B5
:1007500000F0F8FE04208DF803000520ADF800003D
:1007600069463A4800F032FC08BD10B5FFF7EDFFCE
:100770004FF4E17000F03DFA10BD08B501210820EA
:1007800000F0E0FE10208DF8030003208DF8020039
:100790000220ADF8000069462C4800F017FC00204C
:1007A0002B49091F086008BD08B50121082000F089
:1007B000C9FE10208DF8030003208DF802000820E8
:1007C000ADF800006946214800F000FC00202049F7
:1007D000091D086008BD10B5FFF7E6FFFFF7CDFF64
:1007E000FFF7C3FF10BD10B5FFF75EFFFFF76CFF0B
:1007F000FFF7BBFF10BD10B5FFF756FFFFF7BDFFBA
:10080000FFF7B3FF10BD10B5FFF7CEFFFFF75CFF9A
:10081000FFF7ABFF10BD10B50446052C13D2DFE87F
:1008200004F0090C06030F00FFF7EDFF0CE0FFF7E3
:10083000E2FF09E0FFF7D7FF06E0FFF7CCFF03E098
:10084000FFF77DFF00BF00BF00BF10BD000C0140DF
:100850008801214200002142F0B504460D464FF6C2
:10086000FF71002325E014F803C04FEA0C2600278F
:1008700019E081EA060C0FFA8CFCBCF1000F06DAD5
:1008800041F2210C8CEA410C1FFA8CF103E04FF687
:10089000FF7C0CEA41014FF6FF7C0CEA460607F1AB
:1008A000010C0CF0FF07082FE3DB03F1010C0CF047
:1008B000FF03AB42D7DB92F800C04FEA0C2CBCF12F
:1008C000000F04D192F801C0BCF1000F02D04FF02C
:1008D000010C01E04FF0000C8C4501D1012000E03B
:1008E0000020F0BD2DE9F04180460F463A202168F6
:1008F00008702E20216848700020216888704046CA
:10090000216804F0C8FC06461EB900252846BDE84B
:10091000F081B07820712179891E8AB2F11CA0681B
:1009200002F07AFB22793244511C0222E06802F084
:1009300073FB2179D4E90202FFF78EFF10B900257D
:100940002846E4E72079801E82B23846A16802F08A
:1009500063FB01252846DAE710B586B0044601217D
:10096000042000F0EFFD0121480400F0F8FD51489B
:1009700000F04CFE0420ADF8140003208DF81600A2
:1009800018208DF8170005A94B4800F01FFB082020
:10099000ADF8140004208DF8170005A9464800F0B2
:1009A00015FB26208DF8000000208DF801000120A5
:1009B0008DF802008DF80300684601F030F80194CC
:1009C0000020ADF80800ADF80A00ADF80C00ADF855
:1009D00010000C20ADF80E0001A9364800F059FEB9
:1009E000012240F22551334800F0EBFE012131484D
:1009F00000F0DBFE06B010BD10B54FF41650FFF747
:100A0000ABFF10BD10B502F0C0F840F225512948E7
:100A100000F0BCFF002839D0264800F037FFC4B2F0
:100A20002648008800F4004080BB2448008800F479
:100A3000804088B10A2C03D000202049088025E09E
:100A40001E48008840F400401C4908801C491D488D
:100A5000006803F0FDF819E00D2C06D11748008856
:100A600040F480401549088010E014480088C0F325
:100A70000D0013490C5411480088401C0F49088090
:100A800008460088C72801DD0020088002F098F899
:100A900010BD70B50546002404E0295D054800F04E
:100AA000F1FE641C284604F008FC401CA042F4D867
:100AB00070BD0000004400400008014020000020FC
:100AC0008C0500200400002008B50121082000F05A
:100AD00039FD0120ADF8000010208DF8030003203F
:100AE0008DF802006946064800F070FA08BD10B59E
:100AF000FFF7EAFF0121024800F015FB10BD0000DE
:100B0000000C014008B50121412000F01BFD01212E
:100B1000564800F02CFB4FF42060ADF80000182080
:100B20008DF8030003208DF802006946504800F05C
:100B30004DFA08BD08B50121412000F003FD4FF436
:100B40002060ADF8000004208DF803006946484895
:100B500000F03CFA08BD30B589B005460C46FFF7F9
:100B6000D1FF0121C80200F0EDFCADF81C50ADF83A
:100B700018400020ADF81E00ADF81A003C208DF89A
:100B8000200006A93B4801F087F86020ADF8080076
:100B90000120ADF80A000020ADF80E00ADF81000FD
:100BA00002A9344801F0B5F802A9324801F0F3F87F
:100BB0000121304801F092FE19208DF80400012037
:100BC0008DF8050000208DF8060001208DF8070043
:100BD00001A800F024FF0821264801F0E9FC0821C3
:100BE000244801F004FD0121224801F0B1FC09B0C4
:100BF00030BD10B50446FFF785FFA1B21D4801F0D6
:100C00003FFEA1B21B4801F03DFE012211461948EA
:100C100001F0B9FB0121174801F0A6FB012115489D
:100C200001F096FB10BD10B50021124801F09CFBAD
:100C30000021104801F08CFBFFF77CFF10BD10B5C0
:100C400001F0A3FF01210B4801F04BFE58B1012137
:100C5000084801F043FE0121064801F053FE064812
:100C6000006803F0C5FC01F0ABFF10BDC00016002A
:100C700000180140002C01400000002010B501F0D8
:100C800084FF02F0C8F801F09BFF10BD10B56FF0B3
:100C9000040000F00EFF314800683149B0FBF1F06C
:100CA000304908702D4800682D49B0FBF1F441F23D
:100CB0008830444305202C4908804FF0E02000692B
:100CC00040F002004FF0E0210861084644610069ED
:100CD00040F00100086110BD70B5034600224FF0DE
:100CE000E02675691F4E367803FB06F400BF4FF00F
:100CF000E026B16910E04FF0E026B06988420BD0E1
:100D0000884202D20E1A324402E02E1A0E443244B5
:100D10000146A24200D300E0EDE700BF70BD70B510
:100D2000044612480078012811D10F4800888442F7
:100D300006DB0D48008894FBF0F5284604F0B6F871
:100D40000948008894FBF0F100FB114084B24FF495
:100D50007A7104FB01F0FFF7BFFF70BD0C000020AB
:100D600000127A0022000020240000206A000020E7
:100D700010B54FF4A06000F04DFE10BD014600BF5D
:100D8000704700BF4D4A128802F04002002AF9D095
:100D9000C2B24A4B1B1D1A80704710B586B004467C
:100DA000012144F2040000F0CDFB444800F02EFC89
:100DB0004FF40070ADF8140003208DF816001820D1
:100DC0008DF8170005A93E4800F000F94FF4806047
:100DD000ADF8140004208DF8170005A9384800F07C
:100DE000F5F825208DF8000003208DF801008DF81E
:100DF000020001208DF80300684600F010FE019407
:100E00000020ADF80800ADF80A00ADF80C00ADF810
:100E100010000C20ADF80E0001A9284800F039FCA4
:100E2000012240F22551254800F0CBFC0121234846
:100E300000F0BBFC06B010BD10B501F0A6FE40F2FC
:100E400025511E4800F0A2FD10B31C4800F01EFD05
:100E5000C4B21C48008800F40040C8B91948008892
:100E600000F4804060B10A2C03D0002015490880AE
:100E700020E01448008840F400401249088019E03E
:100E80000D2C06D10F48008840F480400D490880A1
:100E900010E00C480088C0F30D000B490C540948C1
:100EA0000088401C0749088008460088C72801DDE3
:100EB0000020088001F084FE10BD000000380140D1
:100EC000000801402C0000205406002009488047FB
:100ED00009480047FEE7FEE7FEE7FEE7FEE7FEE71C
:100EE000FEE7FEE7FEE7FEE704480549054A064B34
:100EF00070470000A705000831010008001200201B
:100F000000180020001400200014002010B5044632
:100F1000CC48844208D10121042000F02DFB00219F
:100F2000042000F029FB46E0C748844208D1012193
:100F3000082000F021FB0021082000F01DFB3AE012
:100F4000C248844208D10121102000F015FB002185
:100F5000102000F011FB2EE0BD48844208D1012191
:100F6000202000F009FB0021202000F005FB22E0FA
:100F7000B848844208D10121402000F0FDFA002148
:100F8000402000F0F9FA16E0B348844208D101216C
:100F9000802000F0F1FA0021802000F0EDFA0AE054
:100FA000AE48844207D10121801500F0E5FA002106
:100FB000A01500F0E1FA10BD10B50121084600F0BF
:100FC000DBFA0021012000F0D7FA10BD2DE9F04135
:100FD000024600250026002000230024002791F867
:100FE00003C00CF00F0591F803C00CF0100CBCF11D
:100FF000000F03D091F802C04CEA050591F800C03B
:10100000BCF1000F31D0146800202BE04FF0010C30
:101010000CFA00F3B1F800C00CEA03069E4220D19E
:1010200083004FF00F0C0CFA03F7BC4305FA03FCE6
:101030004CEA040491F803C0BCF1280F06D14FF02C
:10104000010C0CFA00FCC2F814C00AE091F803C0CD
:10105000BCF1480F05D14FF0010C0CFA00FCC2F8AE
:1010600010C0401C0828D1D31460B1F800C0BCF1F6
:10107000FF0F34DD546800202EE000F1080C4FF023
:10108000010808FA0CF3B1F800C00CEA03069E420E
:1010900021D183004FF00F0C0CFA03F7BC4305FA83
:1010A00003FC4CEA040491F803C0BCF1280F05D1FD
:1010B00000F1080C08FA0CF8C2F8148091F803C08B
:1010C000BCF1480F07D100F1080C4FF0010808FAF5
:1010D0000CF8C2F81080401C0828CED35460BDE83C
:1010E000F0814FF6FF710180022181700421C170EF
:1010F00070470246002093680B400BB1012000E0CE
:10110000002070470146886880B270470246002080
:10111000D3680B400BB1012000E00020704701466E
:10112000C86880B2704701617047416170470AB179
:10113000016100E041617047C16070474FF4803247
:101140000A438261816182618269826970470246D5
:101150000020434B18684FF68073184040EA021095
:1011600008433F4B186070473E49C8617047F0B56F
:101170000A46002300240021002500F00046B6F1B5
:10118000004F02D1364EF16901E0354E7168C0F36F
:10119000034583B200F44016B6F5401F08D121F094
:1011A00070612F4E766826F070662D4F7E6012E0DB
:1011B00000F48016B6F5801F06D1032606FA05F462
:1011C000A14341F0706106E0460D360103FA06F6D0
:1011D000B14341F0706122B1460D360103FA06F6C3
:1011E000314300F00046B6F1004F02D11C4EF161D0
:1011F00001E01B4E7160F0BD30B500228B071C0F63
:101200000F2303FA04F2164B08338C1053F82430E2
:101210009343134C08348D1044F8253023468C102A
:1012200053F824308C07240F00FA04F423430C4CA9
:1012300008348D1044F8253030BD0A49DC3108608F
:101240007047000000080140000C01400010014000
:101250000014014000180140001C01400020014022
:101260000000014000002042DF48006840F001001B
:10127000DD49086008464068DC490840DA494860B2
:1012800008460068DA490840D749086008460068FF
:1012900020F4802008600846406820F4FE00486082
:1012A0004FF41F0088607047CF49096821F48031EE
:1012B000CD4A11601146096821F480211160B0F512
:1012C000803F03D0B0F5802F0ED106E0C6490968F3
:1012D00041F48031C44A116007E0C349096841F410
:1012E000A021C14A116000E000BF00BF704710B5E7
:1012F00001460022002300204A11012A02D1BA4CE3
:10130000236806E0022A02D1B74C236A01E0B64CFA
:10131000636A01F01F02012494401C400CB10120BB
:1013200000E0002010BD38B500200090002400250A
:1013300000BF3120FFF7DBFF05460098401C0090FE
:101340000098B0F5A06F01D0002DF2D03120FFF74A
:10135000CEFF08B1012400E00024204638BD01463C
:101360000020A14A106820F0F80040EAC100106097
:101370007047A04908607047024600209A4B5868A1
:1013800020F47C1042EA01031843974B58607047E1
:1013900098490866704701460020934A506820F03B
:1013A00003000843506070478F48406800F00C000D
:1013B0007047014600208C4A506820F0F000084336
:1013C0005060704701460020874A506820F4E06072
:1013D00008435060704701460020834A506820F45B
:1013E000605040EAC1005060704729B17E4A527A8D
:1013F00002437D4B5A7204E07B4A527A82437A4B15
:101400005A7270477B49D831086070470146002006
:10141000754A506820F440400843506070470021EE
:10142000714A20321170704A82F82010012802D0CF
:1014300004280AD104E001216B4A2032117005E032
:101440000521694A2032117000E000BF00BF7047DB
:101450006949086070476449096A0143624A116238
:101460007047654944390860704730B50021002253
:10147000002400235C4D6D6805F00C0121B10429A6
:1014800005D0082923D105E05C4D056022E05B4DC5
:1014900005601FE0544D6D6805F47012524D6D6883
:1014A00005F48034022505EB92421CB9544D554396
:1014B00005600BE04C4D6D6805F400351DB1504DD5
:1014C0005543056002E04D4D5543056002E04B4D2C
:1014D000056000BF00BF444D6D6805F0F0010909CB
:1014E000484D6B5C0568DD4045603F4D6D6805F417
:1014F000E061090A434D6B5C4568DD4085603A4D0B
:101500006D6805F46051C90A3E4D6B5C4568DD406D
:10151000C560354D6D6805F44041890B3A4D6B5CF3
:10152000C568B5FBF3F5056130BD29B12E4A526996
:1015300002432D4B5A6104E02B4A526982432A4BE5
:101540005A61704729B1284A92690243264B9A6131
:1015500004E0254A92698243234B9A61704729B17E
:10156000214AD2690243204BDA6104E01E4AD26963
:1015700082431D4BDA61704729B11B4AD26802438E
:10158000194BDA6004E0184AD2688243164BDA60DD
:10159000704729B1144A12690243134B1A6104E0DF
:1015A000114A12698243104B1A617047124940393F
:1015B000086070470F49C86470470B49C87170478D
:1015C0000948406A40F08070074948627047014608
:1015D0000020054A92680A400AB1012000E000207C
:1015E0007047014988727047001002400000FFF800
:1015F000FFFFF6FE000042428004424200127A00E1
:1016000000093D002E0000203E00002010B50446D9
:10161000FB48844209D101218803FFF7ADFF002177
:101620004FF48040FFF7A8FF32E0F648844209D12A
:1016300001214804FFF7ADFF00214FF40030FFF710
:10164000A8FF25E0F048844209D101218804FFF772
:10165000A0FF00214FF48020FFF79BFF18E0EB482C
:10166000844209D10121C804FFF793FF00214FF400
:101670000020FFF78EFF0BE0E548844208D10121EE
:101680000805FFF786FF00214FF48010FFF781FF68
:1016900010BD2DE9F04786B005460E460024A2464F
:1016A00000BFA1460027B08900B100BF2F462C8A99
:1016B0004CF6FF700440F08804432C82AC894EF64F
:1016C000F3100440B088318908437189084304430A
:1016D000AC81AC8A4FF6FF400440B0890443AC8231
:1016E00001A8FFF7C2FEC648874202D1DDF810A06C
:1016F00001E0DDF80CA0A88900F4004040B10AEB3D
:10170000CA0000EB0A1031684900B0FBF1F807E0AD
:101710000AEBCA0000EB0A1031688900B0FBF1F84F
:101720006420B8FBF0F004012009642101FB10895A
:10173000A88900F4004040B1322000EBC900B0FBA2
:10174000F1F000F00700044308E0322000EB09103C
:101750006421B0FBF1F000F00F0004432C8106B0CF
:10176000BDE8F0874FF41651016000218180C180EF
:1017700001810C21418100218181704710B5024611
:101780000020108A4FF2FF0318400B884C88234337
:101790008C882343CC8823431843108210BD00213A
:1017A000018041808180C180704721B1828942F4EB
:1017B0000052828104E082894DF6FF731A408281D3
:1017C0007047F0B50346002400260025002040F6AF
:1017D0006A17B94200D100BF1846C1F3421401F0A4
:1017E0001F06012707FA06F5012C01D10C3004E091
:1017F000022C01D1103000E014301AB107682F43D9
:10180000076002E00768AF430760F0BD1AB1838A42
:101810000B43838202E0838A8B4383827047028A70
:101820004FF6F0731A400282028A0A43028270471E
:1018300082894FF2FF731A40828182890A43828132
:10184000704721B1828942F00202828104E08289DC
:101850004FF6FD731A4082817047028A4FF6DF739C
:101860001A400282028A0A430282704721B1028A28
:1018700042F48042028204E0028A4BF6FF731A406F
:1018800002827047C1F3080282807047014688884F
:10189000C0F308007047818941F0010181817047E0
:1018A000028BD2B20283028B42EA0122028370478A
:1018B000028B02F47F420283028B0A430283704749
:1018C00021B1828A42F02002828204E0828A4FF6AD
:1018D000DF731A408282704721B1828A42F010027F
:1018E000828204E0828A4FF6EF731A408282704748
:1018F00021B1828A42F00802828204E0828A4FF695
:10190000F7731A408282704721B1828942F4004203
:10191000828103E08289C2F30E028281704721B185
:10192000828A42F40062828204E0828A4FF2FF736C
:101930001A4082827047828A4FF6FB731A40828275
:10194000828A0A438282704721B1828A42F002026F
:10195000828204E0828A4FF6FD731A4082827047C9
:1019600002460020B1F5007F00D100BF13880B4074
:101970000BB1012000E00020704701F40072B2F5C5
:10198000007F00D100BFCA430280704770B5024695
:10199000002400230025002040F66A16B14200D141
:1019A00000BFC1F3421501F01F03012606FA03F33D
:1019B000012D02D19689334006E0022D02D1168A0C
:1019C000334001E0968A33400C12012606FA04F4F3
:1019D0001688344013B10CB1012000E0002070BD26
:1019E00010B50022002340F66A14A14200D100BFC6
:1019F0000A1201249440A3B2DC43048010BD00000D
:101A0000003801400044004000480040004C0040C5
:101A10000050004031490143314A1160704770B5B0
:101A2000002100230F22C47804B32D4C246804F451
:101A3000E064C4F5E064210AC1F10403CA404478BB
:101A400004FA03F18478144021430901254C0678F7
:101A5000A155047804F01F050124AC4005786D11F0
:101A6000AD0005F1E025C5F8004109E0047804F077
:101A70001F050124AC401C4D0678761145F8264020
:101A800070BD1A4A0A400243154B1B1F1A6070476B
:101A900039B1134A121D12680243114B1B1D1A6003
:101AA00006E00F4A121D126882430D4B1B1D1A607F
:101AB0007047042808D14FF0E021096941F0040182
:101AC0004FF0E022116107E04FF0E021096921F0B9
:101AD00004014FF0E0221161704700000000FA0598
:101AE0000CED00E000E400E080E100E080FFFF1F7B
:101AF00010B50446FE48844208D10121C014FFF706
:101B00003BFD0021E014FFF737FDC4E0B4F1804F46
:101B100008D101210846FFF73CFD00210120FFF715
:101B200038FDB8E0F348844208D101210220FFF7D4
:101B300030FD00210220FFF72CFDACE0EE4884428E
:101B400008D101210420FFF724FD00210420FFF724
:101B500020FDA0E0E948844208D101210820FFF7D8
:101B600018FD00210820FFF714FD94E0E4488442AA
:101B700008D101211020FFF70CFD00211020FFF7F4
:101B800008FD88E0DF48844208D101212020FFF7CA
:101B900000FD00212020FFF7FCFC7CE0DA488442B5
:101BA00008D101214014FFF7E7FC00216014FFF782
:101BB000E3FC70E0D548844209D10121C804FFF755
:101BC000DBFC00214FF40020FFF7D6FC63E0D04897
:101BD000844209D101210805FFF7CEFC00214FF412
:101BE0008010FFF7C9FC56E0CA48844209D10121A0
:101BF0004805FFF7C1FC00214FF40010FFF7BCFCC3
:101C000049E0C548844208D101214020FFF7C1FCCA
:101C100000214020FFF7BDFC3DE0C048844208D1D0
:101C200001218020FFF7B5FC00218020FFF7B1FCE7
:101C300031E0BB48844208D101218015FFF7A9FC9F
:101C40000021A015FFF7A5FC25E0B648844209D184
:101C500001210804FFF790FC00214FF48030FFF7CA
:101C60008BFC18E0B048844209D101214804FFF7F9
:101C700083FC00214FF40030FFF77EFC0BE0AB4803
:101C8000844208D101218804FFF776FC00214FF43B
:101C90008020FFF771FC10BD00220288944B98420F
:101CA0000ED0994B98420BD0B0F1804F08D0914B99
:101CB000984205D0904B984202D0904B984204D164
:101CC0004FF68F731A404B881A438D4B984207D0BA
:101CD0008C4B984204D04FF6FF431A40CB881A43EE
:101CE00002808B8883850B880385814B98420BD0BB
:101CF000854B984208D08B4B984205D08A4B98422E
:101D000002D08A4B984201D10B7A03860123838249
:101D1000704770B5002400220023058C4FF6FE7634
:101D200035400584028C8388048B4FF68F752C40D8
:101D3000B51E2C400D882C43751E2A400D892A4360
:101D40004D882A436A4DA8420BD06F4DA84208D057
:101D5000744DA84205D0744DA84202D0734DA842DC
:101D600013D14FF6F7752A404D892A434FF6FB757C
:101D70002A408D882A434FF6FF652B404FF6FF55CA
:101D80002B408D892B43CD892B4383800483CD88C1
:101D90008586028470BD70B5002400220023058C66
:101DA0004FF6EF7635400584028C8388048B48F625
:101DB000FF752C404FF6FF452C400D884FF6FF76FF
:101DC00006EA05252C434FF6DF752A400D8906EA01
:101DD00005152A434D8806EA05152A43444DA842B5
:101DE00002D0494DA8421DD14FF67F752A404D893A
:101DF0004FF6FF7606EA05152A434FF6BF752A40CF
:101E00008D8806EA05152A434FF6FF352B404FF221
:101E1000FF752B408D8906EA85052B43CD8906EA9F
:101E200085052B4383800483CD880587028470BD9C
:101E300070B5002400220023058C4FF6FF66354064
:101E40000584028C8388848B4FF68F752C404FF667
:101E5000FC752C400D882C434FF6FF552A400D8908
:101E60004FF6FF7606EA05252A434D8806EA052542
:101E70002A431F4DA84202D0234DA8421DD14FF244
:101E8000FF752A404D894FF6FF7606EA05252A435D
:101E90004FF6FF352A408D8806EA05252A434EF67F
:101EA000FF752B404DF6FF752B408D8906EA051511
:101EB0002B43CD8906EA05152B4383808483CD8887
:101EC0008587028470BD70B5002200230024058C34
:101ED0004EF6FF7635400584038C8488828B48F665
:101EE000FF752A404FF6FF452A400D8820E000008C
:101EF000002C01400004004000080040000C00409D
:101F0000001000400014004000340140004C01402B
:101F1000005001400054014000180040001C0040E7
:101F200000200040004001400044014000480140C2
:101F30004FF6FF7606EA05252A434DF6FF752B403E
:101F40000D8906EA05352B434D8806EA05352B43F6
:101F5000FA4DA84202D0FA4DA84208D14BF6FF75BF
:101F60002C408D894FF6FF7606EA85152C43848038
:101F70008283CD88A0F84050038470BD828B4FF2DD
:101F8000FF331A408283828B4FF6FF7303EA0123EB
:101F90001A4382837047F0B50C4615460022002193
:101FA0000026078C4EF6FF7C07EA0C070784828B1D
:101FB000018C4FF6FF7707EA043640F6FF473A40B8
:101FC0004FF6FF7707EA05273A434FF6FF7707EA10
:101FD00003373A43D94FB8420ED0D94FB8420BD04D
:101FE000B0F1804F08D0D74FB84205D0D64FB84295
:101FF00002D0D64FB84206D14DF6FF77394046F4AD
:102000008057394305E047F6FF57394044F480577D
:10201000394382830184F0BD828B4FF6F3731A40FB
:102020008283828B0A4382837047F0B50C46154643
:10203000002200210026078C4FF6FF6C07EA0C07F0
:102040000784828B018C4FF6FF7707EA04264FF650
:102050000C773A404FF6FF7707EA03172F433A43CE
:10206000B64FB8420ED0B64FB8420BD0B0F1804F49
:1020700008D0B44FB84205D0B34FB84202D0B34FE6
:10208000B84206D14FF6FF57394046F480773943BE
:1020900005E04FF2FF57394044F48077394382839B
:1020A0000184F0BD028B4FF2FF331A400283028B92
:1020B0004FF6FF7303EA01231A4302837047F0B51A
:1020C0000C461546002200210026078C4FF6EF7CB7
:1020D00007EA0C070784028B018C4FF6FF7707EAAB
:1020E000041640F6FF473A404FF6FF7707EA0337FA
:1020F0003A434FF6FF7707EA05273A438F4FB84236
:102100000ED08F4FB8420BD0B0F1804F08D08D4F1A
:10211000B84205D08C4FB84202D08C4FB84206D19D
:102120004FF6DF77394046F01007394305E04FF6A8
:102130005F77394044F01007394302830184F0BDD2
:10214000028B4FF6F3731A400283028B0A43028319
:102150007047F0B50C46154600220021068C4FF65C
:10216000FE773E400684028B018C4FF60C7632409F
:102170007E1C06EA03162E433243704EB0420ED048
:102180006F4EB0420BD0B0F1804F08D06D4EB042D0
:1021900005D06D4EB04202D06C4EB04206D14FF623
:1021A000FD76314044F00106314305E04FF6F57607
:1021B000314044F00106314302830184F0BD70B523
:1021C00005460C465D4885420ED05D4885420BD0E1
:1021D000B5F1804F08D05B48854205D05A4885420A
:1021E00002D05A48854200D100E000BF208850B993
:1021F0002389A28861882846FFF7ABFFE18828463B
:10220000FFF79EFF25E0208804280AD12389A288B1
:1022100061882846FFF753FFE1882846FFF742FF11
:1022200017E0208808280AD12389A28861882846D7
:10223000FFF7FBFEE1882846FFF7EEFE09E0238961
:10224000A28861882846FFF7A6FEE1882846FFF7A6
:1022500095FE70BD2DE9F04105460C46002601278C
:10226000608808B9022600E00026A088012801D174
:10227000022700E001272088A0B92389A28861886D
:102280002846FFF766FFE1882846FFF759FF2389B4
:102290003A4631462846FFF712FFE1882846FFF705
:1022A00001FF13E02389A28861882846FFF707FF12
:1022B000E1882846FFF7F6FE23893A46314628464C
:1022C000FFF747FFE1882846FFF73AFFBDE8F081B6
:1022D0000A884B881A438B881A43CB881A430B8988
:1022E0001A434B891A438B891A43A0F8442070473C
:1022F0004FF6FF71818000210180C1804180017211
:1023000070470021018041808180C180018141812D
:102310008181C1817047002101804180012181803C
:102320000021C180018170470021018041808180AE
:10233000C18001814181818170470000002C0140F2
:10234000003401400004004000080040000C004040
:1023500021B1028842F00102028004E002884FF6B7
:10236000FE731A400280704731B1B0F8442042F445
:102370000042A0F8442005E0B0F84420C2F30E0269
:10238000A0F8442070471AB183890B43838102E08F
:1023900083898B43838170478182704741EA0203BE
:1023A000A0F8483070471AB183890B43838102E05B
:1023B00083898B438381704701894FF6F8721140FE
:1023C000018170470A46002101894FF68F73194039
:1023D00011430181704730B504460D462946204619
:1023E000FFF7F0FF208940F00700208130BD2DE984
:1023F000F04104460D4616461F46602D06D13B4669
:10240000012231462046FFF75AFE05E03B460122F5
:1024100031462046FFF79DFE29462046FFF7D2FFB2
:10242000208940F007002081BDE8F08130B50C46DE
:1024300000210189C9B24FF6FF7505EA032515434E
:1024400025432943018130BD2DE9F04105460E4663
:1024500017469846002443463A4631462846FFF739
:10246000E5FF2C894FF6F870044044F007044FF65E
:102470008F70044044F070042C81BDE8F081F0B509
:1024800004460D4616461F463B4632462946204620
:10249000FFF7CCFF208940F480402081F0BD01850A
:1024A000828270470A46002101884FF68F731940D7
:1024B000114301807047F0B50C4615461E460021B9
:1024C000002200230189028B038C4FF6F8773940F4
:1024D00021434FF6FC473A4040F201173A434FF68A
:1024E000DD773B404FF6FF7707EA06172F433B4364
:1024F000018102830384F0BD0A460021018B4FF65F
:102500008F7319401143018370470A460021018BE4
:1025100048F6FF7319404FF6FF7303EA022319438D
:10252000018370470A460021818B4FF68F73194053
:102530001143818370470A460021818B48F6FF735F
:1025400019404FF6FF7303EA022319438183704752
:1025500021B1028842F08002028004E002884FF636
:102560007F731A400280704721B1828842F00402D2
:10257000828004E082884FF6FB731A4082807047A5
:1025800021B1828842F00802828004E082884FF6FE
:10259000F7731A408280704721B1828842F00102AD
:1025A000828004E082884FF6FE731A408280704772
:1025B0000A460021018B4FF6F7731940114301833E
:1025C00070470A460021018B4FF2FF7319404FF606
:1025D000FF7303EA02231943018370470A4600216F
:1025E000818B4FF6F77319401143818370470A4678
:1025F0000021818B4FF2FF7319404FF6FF7303EAFE
:1026000002231943818370470A460021018B4FF64C
:10261000FB7319401143018370470A460021018B67
:102620004FF6FF3319404FF6FF7303EA02231943B5
:10263000018370470A460021818B4FF6FB731940D6
:102640001143818370470A460021818B4FF6FF3387
:1026500019404FF6FF7303EA022319438183704741
:102660000A460021018B4FF67F7319401143018305
:1026700070470A460021018BC1F30E014FF6FF732C
:1026800003EA02231943018370470A460021818B24
:102690004FF67F7319401143818370470A4600212A
:1026A000818BC1F30E014FF6FF7303EA0223194336
:1026B000818370470A460021018C4FF6FD73194053
:1026C0001143018470470A460021018C4FF6F773CD
:1026D00019401143018470470A460021018C4FF6CE
:1026E000DF7319404FF6FF7303EA021319430184A5
:1026F00070470A460021018C4FF67F7319404FF650
:10270000FF7303EA02131943018470470A4600214C
:10271000018C4FF6FF5319404FF6FF7303EA022373
:102720001943018470470A460021018C4FF2FF7360
:1027300019404FF6FF7303EA0223194301847047DF
:102740000A460021018C4DF6FF7319404FF6FF73C6
:1027500003EA023319430184704730B50023012492
:102760008C40A3B2048C9C430484048C02FA01F5CF
:10277000ADB22C43048430BD30B5002304248C401A
:10278000A3B2048C9C430484048C02FA01F5ADB21C
:102790002C43048430BD70B5034600200024184645
:1027A000183001258D40ACB21D8CA5431D8409B1A4
:1027B000082909D100EB6100056825F07005056066
:1027C0000568154305600EE00D1FC5F34E0528444E
:1027D000056825F4E045056005684FF6FF7606EAD2
:1027E00002263543056070BD21B1028842F0020225
:1027F000028004E002884FF6FD731A4002807047A1
:1028000021B1028842F00402028004E002884FF6FF
:10281000FB731A400280704721B1828842F0800227
:10282000828004E082884FF67F731A40828070476E
:1028300002884FF6F7731A40028002880A4302802A
:10284000704782884FF68F731A40828082880A43CD
:102850008280704702894FF6F8731A40028102891C
:102860000A430281704702894FF67F731A40028142
:1028700002890A43028170478184704781857047CD
:10288000818670470187704781877047A0F84010A4
:10289000704702884FF6FF431A40028002880A43BD
:1028A000028070470146888E70470146088F704746
:1028B0000146888F70470146B1F8400070470146D5
:1028C000888C70470146088D704702460020138AA5
:1028D0000B400BB1012000E000207047CA43028288
:1028E000704730B50246002000230024158A05EA0F
:1028F0000103958905EA010413B10CB1012000E040
:10290000002030BDCA430282704700007CB500251C
:1029100014E06946284602F0BFF9064666B9F74852
:1029200050F8254044B1012C06D0D4E9020100EB57
:10293000810060640198A064681CC5B23F2DE8D98D
:102940007CBD002400BF02E0282002F0AFFAEC4872
:1029500000780028F8D0EB4800686421B0FBF1F063
:10296000E84908600846006828B90020E649087070
:10297000FF2002F0D3F900BF02F0C8FB0446E34891
:102980000068E34908600020E0490860204602F042
:10299000C1FBDF480068DB490968B0FBF1F0C0F11A
:1029A0006400D949087002F05EFBFFF7AFFF142006
:1029B00002F07CFAE0E700B587B003200021802216
:1029C000D44BCDE90132CDE903104FF6FE703E2322
:1029D000D14A0090AFF2950001F077FF06AACFA18F
:1029E0003E2002F0DBF807B000BD002400BF00BFAE
:1029F00002F08CFB0446C5480068401CC3490860CF
:102A0000204602F087FB02F02DFBF1E700B587B00E
:102A1000032000218022C54BCDE90132CDE903100E
:102A20004FF6FF703F23C24A0090AFF2410001F021
:102A30004CFF06AABFA13F2002F0B0F807B000BDCE
:102A400004E0002200F8012B4A1E91B20029F8D1BF
:102A5000704770B5C821BB48FFF7F2FF00230FE0B5
:102A6000581C85B203EB8300B64901EB800405EBEB
:102A7000850001EB8006002020706660581C83B240
:102A8000092BEDD303EB8300AE4901EB800400205A
:102A9000207060600846AC49086070BD70B54FF4A6
:102AA0007C71AA48FFF7CCFF4FF480719348FFF781
:102AB000C7FF002413E0601CC5B2C4EBC40000EBE8
:102AC0004000A24901EB8003C5EBC50000EB4000CC
:102AD00001EB80065E619EA0D864601CC4B20B2C22
:102AE000E9D3C4EBC40000EB4000984901EB80033C
:102AF0000020586196A0D864002096490860934849
:102B00009549086070BD0021944A1170002004E0CE
:102B10000021934A1154411CC8B20828F8D300215F
:102B2000904A1170904A1170904A1160904A116059
:102B3000704700208F4908608F4908708F490870DE
:102B40008F4908708F4908708F4908606F49086085
:102B50006F4908606B49086069490870704710B593
:102B600002F07CFAFFF7E5FFFFF7CDFFFFF796FFD6
:102B7000FFF76FFF00F0EAFE01F0C7FBFFF746FF2B
:102B8000FFF719FF02F06BFA10BD7E4800780128AC
:102B900008D179480078FF2804D277480078401C93
:102BA00075490870704779496C4A1278885C6C499D
:102BB000095C764A515C01EBC0016B4A11707047A9
:102BC00010B500246F480078012830D102F09EFA39
:102BD00004466948007820B167480078401E66497D
:102BE000087065480078F8B964480078E0B9FFF7E4
:102BF000DAFF42485C49097850F821005B490860D7
:102C0000594800785749097888420DD057480068DC
:102C1000806B401C5549096888635B480068401C0C
:102C20005949086002F091FA204602F073FA10BD8B
:102C300010B5002453480078012811D102F066FA3B
:102C400004464D48007840B94C480078FF2804D22B
:102C50004A480078401C49490870204602F05AFA58
:102C600010BD10B5002402F051FA04464248007825
:102C7000F8B942480078E0B9FFF795FF1F483A4994
:102C8000097850F8210039490860374800783549FB
:102C9000097888420DD035480068806B401C334964
:102CA0000968886338480068401C3749086002F0AA
:102CB00045FA204602F02EFA10BD10B50024314826
:102CC000007801286FD102F021FA04462B480078E1
:102CD00080B12A480078401E2849087008460078CC
:102CE00048B92548007838B9204602F013FAFFF7B2
:102CF000B8FF58E054E04FE04AE00000340C0020F8
:102D00005C00002054000020500000206C000020D7
:102D10005800002034080020300A002075432F4F4F
:102D2000532D49492053746174000000340A002077
:102D3000300C002075432F4F532D49492049646CB6
:102D4000650000001C07002048000020340D002012
:102D50003F0000007C000020740000206100002083
:102D6000620000205F00002060000020780000204A
:102D700070000020880000205D0000205E00002020
:102D80006B0000206A00002044000020E853000887
:102D9000204602F0BFF906E0204602F0BBF902E04F
:102DA000204602F0B7F910BD10B5EB48007890B995
:102DB000FFF7F9FEE9480078E9490870E948E74972
:102DC000097850F82100E849086008460068E7499A
:102DD000086002F0A2F910BD10B50024022002F034
:102DE00065F802F093F904460020E14908602046A6
:102DF00002F090F9142002F059F802F087F9044625
:102E0000DB480068DB4908600120DB490870204688
:102E100002F080F910BD70B5002602F074F902F0DE
:102E200075F90646D5480068401CD449086030460C
:102E300002F070F9C8480078012853D1D0480078D2
:102E400020B1012804D0022809D103E001250BE0BC
:102E5000002509E001250120C949087004E0012589
:102E60000020C749087000BF00BF05B970BDC54844
:102E7000046833E002F04AF90646E06A50B3E06ABB
:102E8000401EE062E06A28BB94F8300000F0370092
:102E900040B114F8300F00F0C800207001206070BD
:102EA000303C02E0002084F8310094F8300000F05B
:102EB000080078B93434A078B34909780843B24996
:102EC00008702078B149085C6178084314F8341917
:102ED000AE4A50546469304602F01CF994F832004E
:102EE0003F28C7D100BFC1E740F2231070477047A9
:102EF00010B590F8342001F10B039B5C90F835403D
:102F0000A34301F10B04A35423469B5C23B98B7AA2
:102F100090F83640A3438B7210BD2DE9F04F054663
:102F20000F4690469946A87A99490E5C05F10B0028
:102F3000805D11F800B00BEBC60000F0FF0A894875
:102F400050F82A4000202034E0602760207C20EAEE
:102F50000800207484F81190207C203C00F00800C8
:102F600068B994F83600884909780843864908709A
:102F70008648805D94F83510084384498855294671
:102F80002046FFF7B5FF5046BDE8F08F10B5774AF1
:102F90001268D061754A126892F8343000F10B0261
:102FA000D25C724B1B6893F835301A436F4B1B6829
:102FB00093F8344000F10B031A55827A6B4B1B686F
:102FC00093F836301A438272684A126892F83410C5
:102FD0006E4A525C654B1B6893F835309A436B4BD5
:102FE0005A541A46525C42B9604A126892F8363016
:102FF000654A12789A43644B1A7010BD014600224C
:103000008A72002005E0002301F10B021354421CD8
:10301000D0B20828F7D3704705E011F8013B00F85B
:10302000013B531E9AB2002AF7D170470146002097
:1030300002E0491C421CD0B20A78002AF9D170473C
:103040002DE9F84F05460F4690469946DDE90AAB53
:103050000020009002F05AF800904E480468002CBE
:1030600075D0183454F8040C4A490860009802F0EE
:1030700051F844F8187CA5760020207660766061CF
:1030800044F814BC44F80CAC44F8108C0C9824F8A8
:10309000080C24F8069C0020E077E810207705F063
:1030A0000700E076217F01208840A077E17E0120A3
:1030B0008840607700206060E060A0602062A062CD
:1030C0006062E0622063AFF278306063183C0026F3
:1030D00006E0002104F1500040F82610701CC6B232
:1030E000002EF6D0204602F00DF8204601F0B8FF81
:1030F00002F00CF800901B4840F825402148006879
:1031000060610020A0611F48006810B11D48006880
:1031100084611C4804603434A0781B490978084352
:103120001949087020781949085C6178084314F837
:103130003419164A505418480078401C1649087033
:10314000009801F0E7FF0020BDE8F88FFFE7009846
:1031500001F0E0FF4220F7E76A0000206000002055
:103160005F000020340C0020780000207000002058
:103170006C000020540000205C000020880000202B
:10318000800000207C000020610000206200002000
:10319000E8530008740000206B0000202DE9F05F68
:1031A00004460F4691461E464FF0000B2078052836
:1031B00004D0012030700020BDE8F09F09F0800AA3
:1031C000BAF1000F04D029F080094FF0010801E0A6
:1031D0004FF000080020307001F098FF8346B9F1ED
:1031E000000F2CD0B9F1010F3BD0B9F1020F03D081
:1031F000B9F1030F46D111E0208900EA0705BD426D
:1032000006D1B8F1010F05D12089A843208101E042
:1032100070203070584601F07DFF3AE0208900EAC6
:10322000070535B1B8F1010F05D12089A8432081E8
:1032300001E070203070584601F06CFF29E02089D1
:1032400027EA0005BD4206D1B8F1010F05D120895A
:103250002843208101E070203070584601F05AFF69
:1032600017E0208927EA000535B1B8F1010F05D133
:1032700020892843208101E070203070584601F0F9
:1032800049FF06E0584601F045FF00256F203070E9
:1032900000BF00BF28468FE72DE9F04106460D46E6
:1032A0000027FA48007820B1102028700020BDE8DF
:1032B000F08101F02BFF0746F548046884B10068EF
:1032C0004068F34908600520207026810020606076
:1032D000F0A0E060384601F01DFF0020287004E0F7
:1032E000384601F017FF722028702046DFE730B51E
:1032F00001464A6808682AB9CC68606028B1002590
:10330000456002E0106000B142608B6800255D629C
:1033100030BDF0B506460F46B46800202834606022
:103320002780207A00F0DF00207200206072207A6F
:10333000283C88B93434A078D74909780843D6495D
:1033400008702078D549085C6178084314F834196E
:10335000D24A5054012500E000253046FFF7C7FF50
:103360002846F0BD2DE9F0470446894615464FF042
:10337000000AC648007820B10F2028702046BDE81A
:10338000F0872078052803D0012028702046F6E732
:1033900001F0BCFE8246606808B1012700E000270A
:1033A000B9F1000F03D0B9F1010F3CD119E08FB989
:1033B000B8A0E06000202070B54800686060002080
:1033C0002081B3480460504601F0A4FE002028701C
:1033D000002605E0504601F09DFE49202870264653
:1033E00028E0D4F8048005E000214046FFF791FF73
:1033F000D8F80080B8F1000FF6D1A6A0E060002058
:103400002070A3480068606000202081A04804600C
:10341000504601F07FFE012F01D1FFF722FC002072
:103420002870002606E0504601F074FE0720287040
:10343000264600BF00BF3046A1E72DE9F041054612
:103440000E46144600279148007820B111202070C4
:103450000020BDE8F08101F059FE074628780528D4
:1034600006D0384601F056FE012020700020F0E71B
:10347000E86830603068FFF7D9FD8046384601F0D3
:1034800049FE002020704046E3E72DE9F041054663
:103490000E46144600277D48007818B1122020708F
:1034A000BDE8F08101F032FE07462878052805D0F6
:1034B000384601F02FFE01202070F1E7EE6038461B
:1034C00001F028FE0020207000BFE9E7F0B51446A7
:1034D000059E734F3F6897F8307047F02007DFF87C
:1034E000C0C1DCF800C08CF830700027DFF8B0C134
:1034F000DCF800C08CF83170694F3F68FE62684F9D
:103500003F6879620C828B74654F3F688F604768B3
:103510000F6000274F60C860456805B16960416071
:103520005F4F3F6897F834205C4FBF5CDFF870C195
:10353000DCF800C09CF835C027EA0C07DFF85CC156
:103540000CF802706746BF5C5FB9554F3F6897F84B
:1035500036C0514F3F7827EA0C07DFF83CC18CF8A2
:103560000070F0BD2DE9F04F89B005460F46914639
:103570009A46129E002002904448007828B102200A
:103580003070002009B0BDE8F08F4648007818B1CF
:103590000D2030700020F5E72878052803D00120A1
:1035A00030700020EEE709F0800BBBF1000F04D073
:1035B00009F07F094FF0010801E04FF0000801F029
:1035C000A5FD0290B9F1000F4AD0B9F1010F78D0F2
:1035D000B9F1020F03D0B9F1030F71D120E02889AE
:1035E00000EA0704BC420FD1B8F1010F02D12889CB
:1035F000A04328812A4800680485029801F08AFDCA
:10360000002030702046BDE74B463A4604A92846C4
:10361000CDF800A0FFF75AFF029801F07BFD78E09B
:10362000288900EA07047CB1B8F1010F02D128898A
:10363000A04328811A4800680485029801F06AFDB9
:103640000020307020469DE74B463A4604A92846A4
:10365000CDF800A0FFF73AFF029801F05BFD58E0BB
:10366000288927EA0004BC421ED1B8F1010F02D11B
:103670002889204328810A4800680485029801F0BF
:1036800049FD0020307020467CE71AE05D000020F4
:103690004C0000203F00000061000020620000207C
:1036A000700000205E0000204B463A4604A92846E0
:1036B000CDF800A0FFF70AFF029801F02BFD28E0EB
:1036C0001FE0288927EA00047CB1B8F1010F02D17C
:1036D000288920432881B14800680485029801F0B8
:1036E00019FD0020307020464CE74B463A4604A9AD
:1036F0002846CDF800A0FFF7E9FE029801F00AFD88
:1037000007E0029801F006FD00246F20307020468B
:1037100038E700BFFFF7A5FA01F0F8FC02909F48D8
:10372000006890F8310020B39C48006890F83100A0
:10373000039000209949096881F8310004A8FFF737
:10374000D6FD00209549096881F83000029801F003
:10375000E1FC00240398012805D0022802D10E20A4
:10376000307003E000BF0A20307000BF00BF204669
:1037700008E78A480068048DB8F1010F1ED1B9F13D
:10378000000F0ED0B9F1010F0CD0B9F1020F03D028
:10379000B9F1030F0AD100E000BF2889A0432881B6
:1037A0000BE000BF28892043288106E0029801F041
:1037B000B1FC6F2030700020E4E600BF029801F0F9
:1037C000A9FC002030702046DCE670B5002501F031
:1037D0009DFC054671480068048D284601F09AFC5E
:1037E000204670BD2DE9FC5F0446894692461E4680
:1037F000002000902078052804D00120307000209F
:10380000BDE8FC9F01F082FC0090BAF1000F03D0EC
:10381000BAF1010F0AD104E0208920EA09002081D1
:103820000BE0208940EA0900208106E0009801F0C1
:1038300071FC712030700020E2E700BF4FF0000BF8
:10384000656855E0A87C40B3012838D0022802D032
:10385000032844D111E02089298A00EA0107288A37
:10386000B84209D139462846FFF753FD8046B8F1E2
:10387000010F01D14FF0010B38E02089298A00EABD
:1038800001074FB139462846FFF743FD8046B8F19E
:10389000010F01D14FF0010B28E0288A218920EA8D
:1038A0000107288AB84209D139462846FFF731FD79
:1038B0008046B8F1010F01D14FF0010B16E0288AC4
:1038C000218920EA01074FB139462846FFF721FD3B
:1038D0008046B8F1010F01D14FF0010B06E00098CE
:1038E00001F018FC6F203070002089E700BF2D68C0
:1038F000002DA7D1009801F00DFCBBF1010F01D103
:10390000FFF7AFF901F002FC0090208901900098C8
:1039100001F000FC00203070019871E72DE9F041C2
:1039200004460D4600272078052804D00120287081
:103930000020BDE8F08101F0E9FB07462689384602
:1039400001F0E8FB002028703046F2E72DE9F04155
:1039500050211348FFF774F800250EE0681C86B26A
:103960000F4800EB051400EB06170020207067607D
:10397000AFF2E020E060681C85B2042DEED3084869
:1039800000EB0514002020706060AFF2F820E060CA
:10399000034804490860BDE8F08100007000002081
:1039A000E40700204C00002070B504460026207873
:1039B000012801D0002070BD01F0A8FB0646656813
:1039C00000206060304601F0A5FB2846F3E770B5A3
:1039D00005460026E348007808B1002070BD01F0DC
:1039E00095FB0646E0480468006820B1DE480068A0
:1039F0004068DD490860304601F08CFB3CB1012095
:103A000020700020208165602046FFF7F7FA2046ED
:103A1000E4E72DE9F0470446884615464FF00009D3
:103A20002078012804D0012028702046BDE8F087C6
:103A3000CC48007818B10F2028702046F6E701F036
:103A400065FB8146A07A08B1012700E00027B8F1A4
:103A5000000F03D0B8F1010F35D117E07FB9002076
:103A60002070C1480068606000202081BE4804606A
:103A7000484601F04FFB00202870002605E048462C
:103A800001F048FB49202870264623E005E000238A
:103A9000022219462046FFF740FAA07A0028F6D104
:103AA0002070B1480068606000202081AE4804604A
:103AB000484601F02FFB012F01D1FFF7D2F800207B
:103AC0002870002606E0484601F024FB07202870F5
:103AD000264600BF00BF3046A8E72DE9F041054665
:103AE0000F4614464FF000082878012804D0012022
:103AF00020700020BDE8F0819A48007818B10220BB
:103B000020700020F6E79948007818B10D20207049
:103B10000020EFE701F0FAFA80466E6846B1002017
:103B20006860404601F0F6FA002020703046E1E778
:103B30008F48006890F8300040F002008C49096816
:103B400081F8300000208A49096881F831008848EE
:103B50000068C7622846FFF719FA404601F0DAFA12
:103B6000FFF77FF801F0D2FA80468148006890F8AC
:103B7000310020B101280DD002280AD105E07C488F
:103B80000068066A002020700DE000260E202070DC
:103B900009E000BF294676480068FFF7A9F900262A
:103BA0000A20207000BF00BF00207149096881F819
:103BB00030006F49096881F831006D490968C861B2
:103BC0006B4909680862404601F0A4FA304691E763
:103BD0002DE9F04104460F4615464FF000082078C5
:103BE000012804D0012028700020BDE8F08101F0F8
:103BF0008DFA8046A07A20B300267FB1012F0CD128
:103C000007E002231A4600212046FFF786F9701CC0
:103C1000C6B2A07A0028F4D109E000BF02231A46F8
:103C200000212046FFF779F9701CC6B200BF00BF23
:103C3000404601F06FFAFFF714F80E202870304666
:103C4000D3E7404601F066FA0020287000BFCCE7B9
:103C500070B504460D4600262078012801D00120C9
:103C600070BD01F053FA0646A07A60B1002302222B
:103C700029462046FFF751F9304601F04BFAFEF78E
:103C8000F0FF0020ECE7606820B1304601F042FA16
:103C90001420E5E76560304601F03CFA0020DFE7DC
:103CA0002DE9F04104460E461546002720780128EC
:103CB00002D00120BDE8F08101F028FA0746A07A81
:103CC000E8B105F0010050B105E0002302223146C1
:103CD0002046FFF722F9A07A0028F6D105E000235C
:103CE000022231462046FFF718F9384601F012FA51
:103CF00005F0040008B9FEF7B4FF0020DAE76068B9
:103D000020B1384601F006FA1420D3E76660384641
:103D100001F000FA0020CDE72DE9F04704460D46FA
:103D20004FF000092078012802D00120BDE8F0877B
:103D300001F0ECF98146A07A287304F10B0705F134
:103D40000408002605E017F8010B08F8010B701CA9
:103D5000C6B2082EF7D360682860484601F0DAF949
:103D60000020E3E75D000020480000205E00002006
:103D7000700000202DE9F04106460D464FF0000886
:103D80003078022804D0012028700020BDE8F0819E
:103D900001F0BCF980467468E08A78B12169081D99
:103DA00020610F68E08A401EE082A1682069884295
:103DB00001D1606820610020287002E01F20287077
:103DC0000027404601F0A6F93846DFE72DE9F0412B
:103DD00006460F464FF00008F748007810B1002063
:103DE000BDE8F08101F092F98046F448056800686A
:103DF00020B1F24800684068F0490860404601F090
:103E000089F93DB301F082F98046ED480468C4B1F8
:103E100000680068EA490860404601F07BF9666086
:103E200006EB8700A060E6602661A7820020E082A2
:103E300002202870002028816C602846FFF7DEF8F9
:103E400008E0DE4800686860DC480560404601F034
:103E500061F900252846C3E72DE9F0470446894665
:103E600015464FF0000A2078022804D0012028705F
:103E70002046BDE8F087D048007818B10F202870A0
:103E80002046F6E701F042F98246A07A10B14FF0E1
:103E9000010801E04FF00008B9F1000F03D0B9F1BB
:103EA000010F45D11FE0B8F1000F15D16668C44875
:103EB00000683060C248066000202070BF4800687B
:103EC000606000202081BD480460504601F022F966
:103ED00000202870002705E0504601F01BF949201A
:103EE000287027462BE005E00023042219462046CF
:103EF000FFF713F8A07A0028F6D16668B04800688A
:103F00003060AF48066000202070AC4800686060F8
:103F100000202081A9480460504601F0FBF8B8F168
:103F2000010F01D1FEF79DFE00202870002706E05A
:103F3000504601F0EFF807202870274600BF00BF69
:103F4000384696E770B50546002601F0DFF80646CC
:103F50006C686068E060606820610020E082304644
:103F600001F0D8F8002070BD2DE9F04707468846DB
:103F700015464FF000093878022804D00120287037
:103F80000020BDE8F0878C48007818B10220287026
:103F90000020F6E78B48007818B10D20287000202B
:103FA000EFE701F0B3F881467C68E08A98B12169B7
:103FB000081D20610E68E08A401EE082A168206929
:103FC000884201D160682061484601F0A3F80020D2
:103FD00028703046D5E77C48006890F8300040F003
:103FE00004007949096881F83000002076490968A1
:103FF00081F8310074480068C0F82C803846FEF71C
:10400000C5FF484601F086F8FEF72BFE01F07EF86A
:1040100081466D48006890F8310020B101280DD02C
:1040200002280AD105E068480068066A0020287066
:104030000DE000260E20287009E000BF39466248D6
:104040000068FEF755FF00260A20287000BF00BF59
:1040500000205D49096881F830005B49096881F8F2
:10406000310059490968C8615749096808624846DA
:1040700001F050F8304684E72DE9F04104460F4640
:1040800015464FF000082078022804D0012028703F
:104090000020BDE8F08101F039F88046A07A20B315
:1040A00000267FB1012F0CD107E00223042200215A
:1040B0002046FEF732FF701CC6B2A07A0028F4D169
:1040C00009E000BF0223042200212046FEF725FF5D
:1040D000701CC6B200BF00BF404601F01BF8FEF7DF
:1040E000C0FD0E2028703046D3E7404601F012F89C
:1040F0000020287000BFCCE72DE9F04105460E46B0
:1041000000272878022802D00120BDE8F08100F0C5
:10411000FDFF0746A87A60B10023042231462846F5
:10412000FEF7FBFE384600F0F5FFFEF79AFD002093
:10413000EBE76C68E08AA18A884204DB384600F02D
:10414000E9FF1E20E1E7E168081DE0600E60E08AFB
:10415000401CE082D4E90210884201D16068E0602E
:10416000384600F0D7FF0020CFE72DE9F0410546A3
:104170000E4600272878022802D00120BDE8F081F1
:1041800000F0C4FF0746A87A60B10023042231463C
:104190002846FEF7C2FE384600F0BCFFFEF761FD80
:1041A0000020EBE76C68E08AA18A88420EDB384683
:1041B00000F0B0FF1E20E1E75D0000204800002075
:1041C000840000205E0000207000002061682069EB
:1041D000884201D1A06820612069001F2061206908
:1041E0000660E08A401CE082384600F093FF002021
:1041F000C4E72DE9F04105460F4616464FF000088A
:104200002878022802D00120BDE8F08100F07EFF6E
:104210008046A87AE8B106F0010050B105E000231D
:10422000042239462846FEF778FEA87A0028F6D1FF
:1042300005E00023042239462846FEF76EFE40467C
:1042400000F068FF06F0040008B9FEF70AFD002040
:10425000DAE76C68E08AA18A884204DB404600F015
:1042600059FF1E20D0E706F0020058B161682069AE
:10427000884201D1A06820612069001F2061206967
:10428000076009E0E168081DE0600F60D4E90210F2
:10429000884201D16068E060E08A401CE0824046CC
:1042A00000F038FF0020AFE72DE9F04705460C4647
:1042B0004FF0000A2878022802D00120BDE8F087DC
:1042C00000F024FF8246A87A207405F10B0804F15F
:1042D0000809002705E018F8010B09F8010B781C04
:1042E000C7B2082FF7D36E68F08A18B1306900683A
:1042F000206001E000202060F08AA080B08AE08089
:10430000504600F007FF0020D8E72DE9F041782162
:104310001048FEF795FB00240DE0601C86B204EB0C
:1043200044000C4901EBC00506EB460001EBC00759
:104330002F60601C84B2042CEFD304EB44000549C9
:1043400001EBC00500202860084603490860BDE86D
:10435000F0810000241100208400002070B5044684
:1043600000262078032801D0002070BD00F0CEFE8A
:104370000646258915B12089401E2081304600F06F
:10438000C9FE2846F1E770B505460026D2480078F8
:1043900008B1002070BD00F0B9FE0646CF480468A1
:1043A000006820B1CD4800684068CC4908603046BC
:1043B00000F0B0FE3CB10320207025810020606039
:1043C0002046FEF71BFE2046E4E72DE9F0470446B1
:1043D000884615464FF000092078032804D00120B4
:1043E00028702046BDE8F087BB48007818B10F2040
:1043F00028702046F6E700F089FE8146A07A08B1D1
:10440000012700E00027B8F1000F03D0B8F1010F39
:1044100035D117E07FB900202070B0480068606097
:1044200000202081AD480460484600F073FE002063
:104430002870002605E0484600F06CFE49202870F0
:10444000264623E005E00023012219462046FEF718
:1044500064FDA07A0028F6D12070A0480068606052
:10446000002020819D480460484600F053FE012F43
:1044700001D1FEF7F6FB00202870002606E0484632
:1044800000F048FE07202870264600BF00BF3046D7
:10449000A8E72DE9F04105460E4614460027287886
:1044A000032803D001202070BDE8F0818A480078FD
:1044B00010B102202070F7E78948007810B10D2074
:1044C0002070F1E700F022FE0746288940B12889D4
:1044D000401E2881384600F01DFE00202070E3E7D2
:1044E0008048006890F8300040F001007D4909687C
:1044F00081F8300000207B49096881F83100794853
:104500000068C6622846FEF741FD384600F002FE0C
:10451000FEF7A7FB00F0FAFD07467248006890F826
:10452000310020B1012809D0022806D102E0002084
:1045300020700BE00E20207008E000BF294669487B
:104540000068FEF7D5FC0A20207000BF00BF0020E5
:104550006449096881F830006249096881F83100CE
:1045600060490968C861384600F0D4FD00BF9BE788
:104570002DE9F04104460F4615464FF0000820781B
:10458000032804D0012028700020BDE8F08100F04D
:10459000BDFD8046A07A20B300267FB1012F0CD14B
:1045A00007E00223012200212046FEF7B6FC701C22
:1045B000C6B2A07A0028F4D109E000BF022301228C
:1045C00000212046FEF7A9FC701CC6B200BF00BF48
:1045D000404600F09FFDFEF744FB0E202870304659
:1045E000D3E7404600F096FD0020287000BFCCE7DE
:1045F00070B5044600252078032801D0012070BD45
:1046000000F084FD0546A07A60B10023012219461E
:104610002046FEF782FC284600F07CFDFEF721FBD9
:104620000020ECE720894FF6FF71884207D22089ED
:10463000401C2081284600F06DFD0020DFE7284661
:1046400000F068FD3320DAE72DE9F04704460D4617
:104650004FF000092078032802D00120BDE8F08740
:1046600000F054FD8146A07AA87204F10B0705F111
:104670000208002605E017F8010B08F8010B701C72
:10468000C6B2082EF7D320892880484600F042FDA4
:104690000020E3E72DE9F04104460E4615460027C9
:1046A0002078032803D001202870BDE8F08100F0B5
:1046B0002DFD074600202870208908B1268105E0DD
:1046C000A07A08B9268101E049202870384600F018
:1046D00021FD00BFE9E700005D0000204800002048
:1046E0005E000020700000202DE9FF5F81468846B3
:1046F0000020009000F00AFD0090F94850F82800D2
:1047000030B1009800F006FD282004B0BDE8F09F0D
:10471000B9F1FF0F03D1F348006890F83290F048E8
:1047200050F8294024B9009800F0F4FC2920ECE767
:10473000012C04D1009800F0EDFC4320E5E74FEA9E
:10474000E80708F0070003900120B84000F0FF0AD6
:1047500001210398814001F0FF0B0020E04941F85E
:104760002900084640F8284014F8346FA0780290D9
:104770006078343C0190DC48815D01980140D1B102
:10478000D948805D01998843D74988550846805D9E
:1047900028B9D648007802998843D4490870D3488C
:1047A000007840EA0A00D1490870CF48C05D40EA6D
:1047B0000B00CD49C855E569D5B105F10B00805D09
:1047C0000199884305F10B0188550846805D18B9A9
:1047D000A87A02998843A872A87A40EA0A00A872C7
:1047E00005F10B00C05D40EA0B0005F10B01C85557
:1047F00084F8328084F83470039884F8330084F8A5
:1048000036A084F835B0009800F084FCB8480078F1
:10481000012801D1FEF725FA002076E72DE9FE4FA9
:1048200006460F4690461C464FF0000900F06EFC0D
:104830008146B048007828B1484600F06BFC3C2027
:10484000BDE8FE8FA64850F8240060BB0120A449B3
:1048500041F82400484600F05DFC002342463946FA
:10486000304600F001FC8246002000900190034693
:104870000246514602902046FEF7E2FB054635B956
:104880009B48007801280CD1FEF7EBF909E000F015
:104890003DFC81460020924941F82400484600F042
:1048A00039FC2846CCE7484600F034FC2820C7E70E
:1048B00002F0010343B102F002032BB102E0491EF2
:1048C000002308C00029FAD170472DE9F04F85B0C8
:1048D00081468A4693461C46DDE90F78129D0020EA
:1048E000039000F013FC03908248007830B10398E5
:1048F00000F010FC3C2005B0BDE8F08F784850F87F
:10490000240088BB0120764941F82400039800F078
:1049100001FC2A4641463846FFF7CAFF2B465A4655
:104920005146484600F0A0FB04901198CDE9008064
:1049300002953A4620460E9B0499FEF781FB0646F7
:1049400036B96B48007801280CD1FEF78AF909E0E6
:1049500000F0DCFB03900020614941F8240003983B
:1049600000F0D8FB3046C6E7FFE7039800F0D2FB23
:104970002820C0E72DE9F041054600275D48007872
:1049800010B14020BDE8F0813F2D01D13E20F9E774
:1049900000F0BCFB0746FF2D03D15248006890F899
:1049A00032504F4850F8254024B9384600F0B2FB49
:1049B0004320E7E7012C04D1384600F0ABFB3D2053
:1049C000E0E714F8340F4849085C6178884321789F
:1049D000454A505414F834091146085C30B994F82B
:1049E000361042480078884340490870E06918B1A1
:1049F0002046E169FEF77CFA666A16B13046FEF79A
:104A000076FC0020E06284F8300084F831003A48F7
:104A10000078FF2804D238480078401C36490870D6
:104A2000384600F077FBFEF762FA00F06FFB0746AE
:104A30003148007820B130480078401E2E49087077
:104A4000204600F00EFB2D480078401E2B490870D0
:104A50000020234941F82500A06930B90020616990
:104A6000886127496069086005E0D4E9050148616B
:104A7000D4E905108861234800686061214804601A
:104A800021A0E064384600F045FB19480078012871
:104A900001D1FEF7E6F8002074E72DE9F041044665
:104AA00000273F2C02D13E20BDE8F081FF2C0BD126
:104AB00000F02CFB07460B48006890F8376038463A
:104AC00000F028FB3046EFE700F020FB07460448E3
:104AD00050F82450D5B9384600F01CFB4320E3E7DA
:104AE000340C0020700000206200002061000020D3
:104AF0006A0000205D0000205E0000206B000020A6
:104B00007C000020740000203F000000012D04D133
:104B1000384600F0FFFA3D20C6E73F2085F8370011
:104B2000384600F0F7FA0020BEE72DE9F0470646C8
:104B30000F4614464FF00008D648007820B11120E7
:104B400020700020BDE8F08700F0E0FA8046FF2EDC
:104B500003D1D148006890F83260D04850F8265010
:104B600035B9404600F0D6FA432020700020E9E72E
:104B7000012D06D1404600F0CDFA432020700020E0
:104B8000E0E7E86C38603868FEF750FA8146404646
:104B900000F0C0FA002020704846D3E72DE9F0412C
:104BA00006460F4614464FF00008BA48007818B180
:104BB00012202070BDE8F08100F0A8FA8046FF2E98
:104BC00003D1B548006890F83260B44850F82650D8
:104BD0002DB9404600F09EFA43202070EAE7012DEF
:104BE00005D1404600F096FA43202070E2E7EF64DA
:104BF000404600F08FFA0020207000BFDAE770B561
:104C00000546002600F082FA0646A44850F82540E2
:104C100024B9304600F07EFA462070BD012C04D144
:104C2000304600F077FA4320F7E794F8300000F0C0
:104C3000080060B314F8300F00F0F700207014F88B
:104C40003009F8B9E06AC8B93434A07894490978D1
:104C500008439349087020789249085C61780843BA
:104C600014F834198F4A5054304600F053FA8E48E5
:104C70000078012809D1FDF7F4FF06E0304600F086
:104C800049FA02E0304600F045FA0020C5E7304618
:104C900000F040FA4420C0E72DE9F04707460D46F2
:104CA0004FF0000A00202860686000F02FFA82466A
:104CB000FF2F03D17848006890F83270774850F899
:104CC00027402CB9504600F025FA4320BDE8F08774
:104CD000012C04D1504600F01DFA4320F6E7207C59
:104CE00000F0010020B9504600F014FA4520EDE72D
:104CF0000026D4F80C90D4F80880504600F00AFA48
:104D000000E0761C58F8041B0029FAD0B000286097
:104D1000A9EB0600800068600020D7E72DE9F0418C
:104D200005464FF0000800F0F1F98046FF2D05D14F
:104D30005948006890F83250012608E0564800684B
:104D400090F83200A84201D1012600E00026534825
:104D500050F825402CB9404600F0DCF94820BDE869
:104D6000F081012C04D1404600F0D4F94320F6E74D
:104D700094F834704B48C05D94F835108843494925
:104D8000C8550846C05D30B994F8361044480078DC
:104D900088434349087094F8300040F0080084F8D4
:104DA0003000404600F0B6F9012E01D1FDF759FF61
:104DB0000020D4E72DE9F04105460E46002700F01B
:104DC000A5F90746FF2D03D13348006890F832500B
:104DD000324850F825402CB9384600F09BF929207C
:104DE000BDE8F081012C04D1384600F093F943204E
:104DF000F6E7542221463046FEF70EF9384600F019
:104E000089F90020ECE72DE9F04704460E461746E5
:104E10004FF0000900F07AF98146FF2C02D11E48BC
:104E2000056802E01D4850F8245005F1500050F884
:104E30002680484600F06EF9002038704046BDE8F4
:104E4000F0872DE9F04704460E46174698464FF086
:104E5000000900F05BF98146FF2C02D10E4805687D
:104E600002E00E4850F8245005F1500040F826703A
:104E7000484600F04FF9002088F80000BDE8F087B0
:104E800010B50548006800F03FF9FF20FFF772FDFC
:104E900010BD00005D00002070000020340C0020D8
:104EA00061000020620000206A00002070B5054605
:104EB00000266348007800B170BD6248007800B1F8
:104EC000FAE71DB300F022F906465F48006890F843
:104ED00034405E48005D5C49096891F835108843AC
:104EE0005A4908550846005D40B95748006890F88F
:104EF0003610574800788843554908705248006872
:104F0000C562304600F006F9FDF7ABFE00BFD3E7FF
:104F10002DE9F04104460D4616461F4648480078E4
:104F200010B15520BDE8F0814648007808B1322024
:104F3000F8E7B81CC82148434FF47A71B0FBF1F18F
:104F40004FF461606043C5EB051200EB8200304412
:104F500000EBC00202EB001001EBC0084046FFF777
:104F6000A5FF0020DEE770B5054600263F2D01D3E2
:104F70002A2070BD00F0CAF80646364850F8254091
:104F800024B9304600F0C6F84320F2E7012C04D1E2
:104F9000304600F0BFF84320EBE7E06A20B9304626
:104FA00000F0B8F85020E4E70020E06294F8300008
:104FB00000F0370040B114F8300F20F037002070B7
:104FC00001206070303C02E0002084F8310094F849
:104FD000300000F00800A8B93434A0781C490978E2
:104FE00008431B49087020781849085C6178084319
:104FF00014F83419154A5054304600F08BF8FDF778
:1050000030FE02E0304600F085F80020B1E770B5D0
:10501000002500F07BF805460F480468284600F09C
:1050200079F8204670BD70B50446002500F06EF892
:10503000054609480460284600F06CF870BD000081
:105040005D0000205E000020700000206200002053
:1050500061000020340C0020880000207047704759
:10506000704770477047704770B5044610464FF060
:1050700080750560051F28462C606FF00106051F2E
:1050800028462E604FF01236051F28462E604FF03E
:105090000336051F28462E604FF00236051F2846AE
:1050A0002E607610051F28462E60051F28462960B1
:1050B0004FF01136051F28462E604FF01036051FA1
:1050C00028462E604FF00936051F28462E604FF007
:1050D0000836051F28462E604FF00736051F284664
:1050E0002E604FF00636051F28462E604FF005361D
:1050F000051F28462E604FF00436051F28462E60F7
:1051000070BD70477047704770470000EFF3108024
:1051100072B6704780F310887047204C204D256090
:105120004FF0000484F309881E4C4FF001052570F0
:105130001D4C4FF08055256062B6FEE730B41A4C26
:105140004FF08055256030BC704730B4164C4FF09E
:105150008055256030BC704700BF72B6EFF3098000
:1051600028B1203880E8F00F10490968086000B5C0
:105170000F4880475DF804EB0E480F490A7802702B
:105180000A480E490A680260106890E8F00F203063
:1051900080F309884EF0040E62B6704720ED00E0FF
:1051A0000000FFFF6A00002004ED00E07000002016
:1051B000035100085F0000206000002078000020FC
:1051C000704700000FB4044910B503AA029800F01C
:1051D000ADF810BC5DF814FB280000202DE9F0416B
:1051E0000E460446002020622046E168884730B31E
:1051F000252805D0D4E901219047206A401CF2E718
:10520000E168204600278847050018D0A5F1410035
:10521000192802D820354FF4006732462946204627
:105220002760FAF7BFFF40B1012804D0F61D26F031
:1052300007060836D8E7361DD6E72846DAE7206A9B
:10524000BDE8F08170B50C460546012A05D02878E6
:10525000800600D5EA69002302E0012305E05B1C1B
:10526000934202D2E05C0028F9D1A869E618C01A7E
:10527000A861286A184428622846AFF3008004E039
:10528000D5E9012114F8010B9047B442F8D3284620
:10529000AFF3008070BD30B505460B462A4613F8C3
:1052A000014B12F8010B08B1A042F8D01CB1002844
:1052B00002D06D1CF1E7284630BD10B5431C02E05A
:1052C00010F8011B71B18107FAD14FF0013202C809
:1052D0008C1A8C4314EAC211F9D0C01A0A0603D002
:1052E000C01E10BDC01A10BD0A0401D0801E10BD22
:1052F0000902FCD0401E10BD7047704770477047D0
:1053000010B5436913B1AFF3008001E0FFF79AFFD6
:10531000012010BD127800F124010A7000224A70A9
:105320000122EDE711684FF0FF32E9E7074B70B556
:105330000D467B4400F011F80446284600F020F8A2
:1053400010B14FF0FF3070BD204670BD4DBAFFFF69
:1053500001694A1C02610878704700B58FB0CDE939
:1053600001310021059105497944CDE90310114629
:105370006846FFF733FF0FB000BD0000E5FFFFFFF9
:10538000007B00F080007047754600F029F8AE46BB
:1053900005006946534620F00700854618B020B541
:1053A000FBF7A2FDBDE820404FF000064FF00007DC
:1053B0004FF000084FF0000B21F00701AC46ACE8BD
:1053C000C009ACE8C009ACE8C009ACE8C0098D462A
:1053D00070470446AFF300802046FAF7F5FE000060
:1053E000004870479C1100200000010002000100ED
:1053F000030001000200010004000100020001009E
:10540000030001000200010005000100020001008C
:10541000030001000200010004000100020001007D
:10542000030001000200010006000100020001006B
:10543000030001000200010004000100020001005D
:10544000030001000200010005000100020001004C
:10545000030001000200010004000100020001003D
:10546000030001000200010007000100020001002A
:10547000030001000200010004000100020001001D
:10548000030001000200010005000100020001000C
:1054900003000100020001000400010002000100FD
:1054A00003000100020001000600010002000100EB
:1054B00003000100020001000400010002000100DD
:1054C00003000100020001000500010002000100CC
:1054D00003000100020001000400010002000100BD
:1054E0000300010002000100085500080000002030
:1054F0008C0000006C010008945500088C0000200E
:10550000741700008801000800000000000000007F
:105510000000000000A24A0400000000000000009B
:105520000102030406070809000000000000000053
:10553000000000000000000000000102030401025E
:105540000304060708090204060800000000000022
:10555000000000000000000000000000000000004B
:10556000000000000000000000000000000000003B
:10557000000000000000000000000000000000002B
:10558000000000000000000000000000000000001B
:045590000000000017
:0400000508000131BD
:00000001FF
